:100000000C949A000C9467060C9440060C94C20061
:100010000C94C2000C94C2000C94C2000C94C20058
:100020000C94C2000C94C2000C94C2000C94C20048
:100030000C94C2000C94C2000C94C2000C94C20038
:100040000C94F6050C94C2000C94B4060C948E0625
:100050000C94C2000C94C2000C94C2000C94C20018
:100060000C94C2000C94C20008000000BE92244907
:10007000123EABAAAA2ABECDCCCC4C3E00000080DA
:10008000BEABAAAAAA3E00000000BF000000803F4D
:100090000000000000084178D3BB4387D1133D190D
:1000A0000E3CC3BD4282AD2B3E68EC8276BED98F3A
:1000B000E1A93E4C80EFFFBE01C4FF7F3F0000007E
:1000C000000007634236B79BD8A71A39685618AEA6
:1000D000BAAB558C1D3CB7CC5763BD6DEDFD753E7D
:1000E000F6177231BF000000803FCDCCCC3D0AD75F
:1000F000233C17B7D13877CC2B329595E6241FB126
:100100004F0A0000803FCDCCCC3D6F12833A95BFA3
:10011000D6337D1D9026B3CE010C00002041000097
:10012000C84200401C4620BCBE4CCA1B0E5AAEC57D
:100130009D74C80811241FBECFEFD8E0DEBFCDBF2D
:1001400011E0A0E0B1E0EAEFF9E102C005900D9204
:10015000AC35B107D9F722E0ACE5B1E001C01D92A2
:10016000A430B207E1F710E0CAE9D0E004C021975B
:10017000FE010E94E70CC939D107C9F70E94E606C3
:100180000C94FB0C0C9400008E3008F08E5087709D
:10019000806480937C0080917A00806480937A00F0
:1001A00080917A0086FDFCCF8091780020917900C3
:1001B00090E0922B08953FB7F894809100029091BF
:1001C0000102A0910202B091030226B5A89B05C0CE
:1001D0002F3F19F00196A11DB11D3FBFBA2FA92FC6
:1001E000982F8827820F911DA11DB11DBC01CD0143
:1001F00042E0660F771F881F991F4A95D1F708952F
:1002000080915C0190915D01019690935D018093D6
:100210005C0108950895CF92DF92EF92FF920F93C1
:100220001F93CF93DF936C017A018B01C0E0D0E084
:10023000CE15DF0581F0D8016D918D01D601ED91CC
:10024000FC910190F081E02DC6010995892B11F0F8
:100250002196EECF7E01C701DF91CF911F910F91C3
:10026000FF90EF90DF90CF900895089580E090E0A8
:100270000895FC01538D448D252F30E0842F90E0AC
:10028000821B930B541710F0CF9608950197089591
:10029000FC01918D828D981761F0828DDF01A80F8E
:1002A000B11D5D968C91928D9F5F9F73928F90E0B0
:1002B00008958FEF9FEF0895FC01918D828D98171F
:1002C00031F0828DE80FF11D858D90E008958FEF5C
:1002D0009FEF0895FC01918D228D892F90E0805C25
:1002E0009F4F821B91098F73992708958EE591E0A6
:1002F0000E946A0121E0892B09F420E0822F0895F1
:10030000FC01848DDF01A80FB11DA35ABF4F2C91B2
:10031000848D90E001968F739927848FA689B78981
:100320002C93A089B1898C91837080648C93938D78
:10033000848D981306C00288F389E02D80818F7D1B
:1003400080830895EF92FF920F931F93CF93DF93D3
:10035000EC0181E0888F9B8D8C8D981305C0E88916
:10036000F989808185FD26C0F62E0B8D10E00F5F88
:100370001F4F0F731127E02E8C8DE8120CC00FB6A3
:1003800007FCFACFE889F989808185FFF5CFCE0196
:100390000E948001F1CF8B8DFE01E80FF11DE35A21
:1003A000FF4FF0829FB7F8940B8FEA89FB89808119
:1003B00080620AC09FB7F894EE89FF896083E8895C
:1003C000F98980818370806480839FBF81E090E0A1
:1003D000DF91CF911F910F91FF90EF900895CF93F0
:1003E000DF93EC01888D8823C9F0EA89FB8980813D
:1003F00085FD05C0A889B9898C9186FD0FC00FB60F
:1004000007FCF5CF808185FFF2CFA889B9898C914F
:1004100085FFEDCFCE010E948001E7CFDF91CF9124
:10042000089580E090E0892B29F00E9476018111E7
:100430000C9400000895CF93DF93EC01888199819B
:10044000DC01ED91FC910190F081E02D09952A816C
:100450003B81820F931F9B838A83DF91CF91089505
:10046000CF93DF93EC0188819981DC01ED91FC91C0
:100470000280F381E02D09952A813B81820F931F31
:100480009B838A83DF91CF9108958F929F92AF9241
:10049000BF92CF92DF92EF92FF920F931F93CF9371
:1004A000DF93CDB7DEB766970FB6F894DEBF0FBE09
:1004B000CDBF6C018E01095E1F4F78018AE0882E46
:1004C000912CA12CB12CCB01BA01A50194010E9461
:1004D000C50C942F852F605DF80162938F01A901EF
:1004E000692F782F411551056105710561F7A70145
:1004F0004E1B5F0BBF01C6010E94300266960FB60D
:10050000F894DEBF0FBECDBFDF91CF911F910F9149
:10051000FF90EF90DF90CF90BF90AF909F908F9023
:100520000895EF92FF920F931F93CF93DF93EC0107
:100530007B0162E20E941B028701F80161918F0139
:10054000662379F0E6E1F1E0F280FF20A1F0329637
:1005500081816813F9CF6CE5CE010E941B026F2DDB
:100560000AC062E2CE01DF91CF911F910F91FF90FF
:10057000EF900C941B02CE010E941B02DECFFC0107
:100580002581222331F0F8E02F02800D911D1124E6
:10059000089580E090E00895FB0101900020E9F7C4
:1005A0003197AF01461B570B0C9430022F923F92AC
:1005B0004F925F926F927F928F929F92AF92BF9273
:1005C000CF92DF92EF92FF920F931F93CF93DF931F
:1005D000CDB7DEB76C970FB6F894DEBF0FBECDBFB8
:1005E0008C011B01DC0114968C918F77863009F405
:1005F000B2C068F4823008F4C0C0843008F483C00C
:10060000F80160817181C1010E949102B0C08C30FB
:10061000B1F038F4883009F495C08A3009F47CC010
:10062000ACC0803209F447C0803409F0A6C06BE545
:10063000C1010E941B02D8010D911C9134C0F80128
:10064000C080D180E280F380A7019601C701B60186
:100650000E946209811191C020E030E0A901C70128
:10066000B6010E946209882309F490C0A70196018F
:10067000C701B6010E94F6089B01AC01C701B60193
:100680000E946209811182C078C0B101C8010E9434
:10069000D602C8010E94BF028C01892B39F06CE29E
:1006A000C1010E941B020115110579F76DE5C10119
:1006B0000E941B0267C06BE7C1010E941B02D801A8
:1006C0000D911C9101151105C9F0F8016681778122
:1006D000C1010E9491026AE3C1010E941B02B101A3
:1006E000C8010E94D602C8010E94BF028C01892B5A
:1006F00029F06CE2C1010E941B02E4CF6DE7C10149
:100700000E941B0234C0F8014281538160817181D3
:10071000C1010E9430022BC0F801C080D180E2806C
:10072000F380F7FE0CC06DE2C1010E941B0244275A
:100730005527BA014C195D096E097F0908C0B70138
:10074000A60105C0F8014081518162817381C10118
:100750000E9445020CC0F8018081882319F06CE2E8
:1007600071E002C061E371E0C1010E94CC02D101DD
:1007700012968D919C9113979DC167E271E0C10122
:100780000E94CC02F1018281938194C120E030E08B
:10079000A901C701B6010E94620987FF08C06DE286
:1007A000C1010E941B02F7FAF094F7F8F09420E8D8
:1007B00036E948E15BE4C701B6010E94BA0A87FD49
:1007C00037C0812C912C70E2A72EB12C188E1F8A75
:1007D00084010C5E1F4FF801E65EFE4F25913591B6
:1007E00045915491C701B6010E94BA0A87FD13C012
:1007F000F801E651FF4F2591359145915491C7017C
:10080000B6010E940F0B6B017C018F89988D8A0DB8
:100810009B1D988F8F8BB594A79494E0891A9108AB
:10082000A8EE8A16AFEF9A0699F699249A9407C013
:1008300040E2A42EB12C55E0952E188E1F8A20E0A0
:1008400030E0A901C701B6010E94BA0A18160CF0DF
:1008500036C02CEA35EC47E257E3C701B6010E94E7
:100860006209181664F1BFEF9B1649F1E92DF4E017
:10087000EF0280011124F801EE5FFE4F6591759142
:1008800085919491A70196010E94BA0A18169CF4CA
:10089000F801E65EFE4F2591359145915491C701CF
:1008A000B6010E940F0B6B017C018F89988D8A190C
:1008B0009B09988F8F8BB594A7949A94D4CFC70136
:1008C000B6010E94D9094B015C012B013C0106E0F5
:1008D00080E492E4AFE0B0E0898F9A8FAB8FBC8F59
:1008E000102F01509AE04916510461047104C8F0B8
:1008F000698D7A8D8B8D9C8D2AE030E040E050E050
:100900000E94C50C298F3A8F4B8F5C8FC301B201B7
:100910002AE030E040E050E00E94C50C29013A0195
:10092000DFCFC501B4010E94080A9B01AC01C701D9
:10093000B6010E94F5086B017C01698D7A8D8B8D63
:100940009C8D0E94080A9B01AC01C701B6010E9460
:100950000F0B2B013C010E94D9096B017C010E9405
:10096000080A9B01AC01C301B2010E94F5089B017A
:10097000AC010E94F6080E94D909C60ED71EE81ED7
:10098000F91E898D9A8DAB8DBC8DC816D906EA06E5
:10099000FB06F8F09FEF891A990AA90AB90AAF89EC
:1009A000B88DAB2B99F0BAE08B169104A104B10479
:1009B00068F0EF89F88D3196F88FEF8BC12CD12C30
:1009C0007601812C912C5401839403C0C12CD12C2D
:1009D00076019AE0492E512C612C712CC701B60189
:1009E000A30192010E94C50C672B682B692B31F47F
:1009F000111624F469017A011150F0CFB501A40158
:100A0000C1010E944502112339F1012F4E01F1E18C
:100A10008F0E911C54018AE0482E512C612C712CB0
:100A2000015068F0C701B601A30192010E94C50CF4
:100A3000605DD4016E934D0169017A01F1CFB5017A
:100A4000611B71098EE2FB018293BF01A5014E1B60
:100A50005F0BC1010E9430028F89988D892B09F4A8
:100A600091CE65E6C1010E941B02AF89B88DB7FF28
:100A70000AC06DE2C1010E941B028F89988D919579
:100A80008195910902C08F89988DFE0177969F010B
:100A90000AE010E0B8010E94B10C805D8293CB01A6
:100AA0000097C1F7A9014E1B5F0BBF01C1010E9456
:100AB000300268CE6C960FB6F894DEBF0FBECDBF85
:100AC000DF91CF911F910F91FF90EF90DF90CF902A
:100AD000BF90AF909F908F907F906F905F904F905E
:100AE0003F902F9008950E94ED0CCF92DF92EF92ED
:100AF000FF920F931F93CF93DF93FC018481982F74
:100B00009F7739F480788062848311821082138207
:100B10001282848185FF5FC06115710509F45BC095
:100B20008A01EB016F01E080F180E114F104B9F07A
:100B3000D70116966D917C9117976C177D0769F018
:100B40006115710529F0CE010E94F20C892B29F064
:100B5000C7010E94BF027C01E8CFC7013EC0D80197
:100B60001496ED91FC91159712968D919C91139787
:100B70000896E817F90720F481E018968C932BC0AB
:100B80003897D8011596FC93EE931497309719F186
:100B9000D60112962D913C9113972115310569F0DC
:100BA000CF01821B930B43E0959587954A95E1F71A
:100BB000D90115968C93D60104C0D6011196FC93E9
:100BC000EE931396FC93EE93129715821482D783BB
:100BD000C683CF0102C080E090E0DF91CF911F91EA
:100BE0000F91FF90EF90DF90CF9008951F920F929A
:100BF0000FB60F9211242F933F938F939F93AF9330
:100C0000BF938091FC019091FD01A091FE01B091F4
:100C1000FF013091FB0123E0230F2D3720F40196D3
:100C2000A11DB11D05C026E8230F0296A11DB11D0F
:100C30002093FB018093FC019093FD01A093FE01A2
:100C4000B093FF018091000290910102A0910202F5
:100C5000B09103020196A11DB11D809300029093F3
:100C60000102A0930202B0930302BF91AF919F9142
:100C70008F913F912F910F900FBE0F901F9018955D
:100C80001F920F920FB60F9211242F933F934F9301
:100C90005F936F937F938F939F93AF93BF93EF93E4
:100CA000FF93E0910201F09103010995FF91EF910B
:100CB000BF91AF919F918F917F916F915F914F9174
:100CC0003F912F910F900FBE0F901F9018951F927C
:100CD0000F920FB60F9211242F933F934F935F9370
:100CE0006F937F938F939F93AF93BF93EF93FF93F4
:100CF000E0910001F09101010995FF91EF91BF9101
:100D0000AF919F918F917F916F915F914F913F91A3
:100D10002F910F900FBE0F901F9018951F920F925A
:100D20000FB60F9211242F933F934F935F936F93BE
:100D30007F938F939F93AF93BF93EF93FF938EE532
:100D400091E00E948001FF91EF91BF91AF919F913F
:100D50008F917F916F915F914F913F912F910F9064
:100D60000FBE0F901F9018951F920F920FB60F9203
:100D700011242F938F939F93EF93FF93E0916E0134
:100D8000F0916F018081E0917401F091750182FD15
:100D900012C09081809177018F5F8F7320917801CD
:100DA000821751F0E0917701F0E0E25AFE4F958F03
:100DB0008093770101C08081FF91EF919F918F9186
:100DC0002F910F900FBE0F901F901895CF93DF9328
:100DD000CDB7DEB7CC5DD1090FB6F894DEBF0FBE3C
:100DE000CDBF789484B5826084BD84B5816084BDB4
:100DF00085B5826085BD85B5816085BD80916E00B9
:100E0000816080936E0010928100809181008260E9
:100E10008093810080918100816080938100809126
:100E200080008160809380008091B1008460809315
:100E3000B1008091B00081608093B00080917A0011
:100E4000846080937A0080917A00826080937A0037
:100E500080917A00816080937A0080917A00806826
:100E600080937A001092C100E0916E01F0916F01C1
:100E700082E08083E0916A01F0916B011082E09141
:100E80006C01F0916D0180E1808310927601E09118
:100E90007201F091730186E08083E0917001F0911E
:100EA0007101808180618083E0917001F091710116
:100EB000808188608083E0917001F0917101808170
:100EC00080688083E0917001F091710180818F7D55
:100ED000808380E091E090930101809300018091F4
:100EE0006900836080936900E89A1E012FE0220E5A
:100EF000311C8E0109521F4F8EE00E94C4007C01FC
:100F00008FE00E94C400BC01990F880B990B0E94CE
:100F10000A0A9B01AC0160E070EC8FE794E40E9448
:100F2000670920E030E040E85FE30E94F50820E038
:100F300030E44CE156E40E940F0B0E94C70A4B01BB
:100F40005C012CE63FEC48E554E30E940F0BA50141
:100F500094010E940F0BA50194010E940F0B2B011D
:100F60003C0126ED34E649E759E3C501B4010E948E
:100F70000F0B2BEC38E444E85AE30E94F6089B017F
:100F8000AC01C301B2010E94F6089B01AC0160E014
:100F900070E080E89FE30E94670923E333E948E8B3
:100FA00053E40E94F5082B013C01B701FF0C880BAC
:100FB000990B0E940A0A2AE038E240EA5BE30E94A9
:100FC0000F0B9B01AC0160E070E080EA90E40E94AE
:100FD000670920E030E040E85FE30E94F5089B01EC
:100FE000AC0160E070E48CE196E40E9467099B012B
:100FF000AC0160E079ED88EF97E40E9467096B012E
:101000007C0120E030E0A9010E94BA0A181624F001
:10101000F7FAF094F7F8F0942EE336E245E95FE34F
:10102000C701B6010E947C0B4B015C0160915C0121
:1010300070915D0180E090E00E94080A9B01AC0184
:101040000E94F6082AE037ED43EC50E40E940F0BB3
:101050006B017C013A8229823C822B821E830D83A4
:1010600018870F8319868E8580788E87AE014F5F33
:101070005F4F67E371E0CE010A960E947505FC019F
:10108000892B41F094819078946094838DE391E072
:1010900091838083AE014F5F5F4F66E471E0CE01C4
:1010A0000A960E947505FC01892B41F09481907885
:1010B0009C6094834082518262827382AE014F5F52
:1010C0005F4F6BE471E0CE010A960E947505FC014A
:1010D000892B41F0948190789C60948380829182E6
:1010E000A282B382AE014F5F5F4F6FE471E0CE0129
:1010F0000A960E947505FC01892B41F09481907835
:101100009C609483C082D182E282F3828EE591E07A
:10111000F8019183808313821282B801CE010A966E
:101120000E94D60242E050E069E571E08EE591E070
:101130000E940B0110925D0110925C010E94DB0085
:101140006B017C0184EF882E99249394A12CB12CFF
:101150000E94DB00DC01CB018C199D09AE09BF099F
:10116000883E9340A105B10598F391E0891A910852
:10117000A108B108E8EECE0EE3E0DE1EE11CF11C92
:1011800081149104A104B10419F70E941102B4CE94
:10119000EEE5F1E01382128288EE93E0A0E0B0E089
:1011A00084839583A683B78388E091E091838083CD
:1011B00085EC90E09587848784EC90E0978786871C
:1011C00080EC90E0918B808B81EC90E0938B828B14
:1011D00082EC90E0958B848B86EC90E0978B868BED
:1011E000118E128E138E148E08955058BB27AA2785
:1011F0000E940D090C94800A0E94720A38F00E9425
:10120000790A20F039F49F3F19F426F40C946F0A00
:101210000EF4E095E7FB0C94690AE92F0E94910A0D
:1012200058F3BA17620773078407950720F079F41B
:10123000A6F50C94B30A0EF4E0950B2EBA2FA02D50
:101240000B01B90190010C01CA01A0011124FF2773
:10125000591B99F0593F50F4503E68F11A16F0406E
:10126000A22F232F342F4427585FF3CF469537956D
:101270002795A795F0405395C9F77EF41F16BA0B32
:10128000620B730B840BBAF09150A1F0FF0FBB1FE0
:10129000661F771F881FC2F70EC0BA0F621F731F29
:1012A000841F48F4879577956795B795F7959E3F86
:1012B00008F0B0CF9395880F08F09927EE0F979517
:1012C000879508950E94450A08F481E008950E94D8
:1012D0007B090C94800A0E94790A58F00E94720AD5
:1012E00040F029F45F3F29F00C94690A51110C94E5
:1012F000B40A0C946F0A0E94910A68F39923B1F31F
:10130000552391F3951B550BBB27AA27621773072B
:10131000840738F09F5F5F4F220F331F441FAA1FBF
:10132000A9F335D00E2E3AF0E0E832D0915050407B
:10133000E695001CCAF72BD0FE2F29D0660F771F29
:10134000881FBB1F261737074807AB07B0E809F00F
:10135000BB0B802DBF01FF2793585F4F3AF09E3F94
:10136000510578F00C94690A0C94B40A5F3FE4F3D9
:10137000983ED4F3869577956795B795F7959F5FD7
:10138000C9F7880F911D9695879597F90895E1E023
:10139000660F771F881FBB1F621773078407BA0782
:1013A00020F0621B730B840BBA0BEE1F88F7E095DD
:1013B00008950E94990A88F09F5798F0B92F9927AD
:1013C000B751B0F0E1F0660F771F881F991F1AF030
:1013D000BA95C9F714C0B13091F00E94B30AB1E0D8
:1013E00008950C94B30A672F782F8827B85F39F0D7
:1013F000B93FCCF3869577956795B395D9F73EF4C9
:1014000090958095709561957F4F8F4F9F4F089570
:10141000E89409C097FB3EF490958095709561958E
:101420007F4F8F4F9F4F9923A9F0F92F96E9BB2744
:101430009395F695879577956795B795F111F8CFC0
:10144000FAF4BB0F11F460FF1BC06F5F7F4F8F4F2B
:101450009F4F16C0882311F096E911C0772321F021
:101460009EE8872F762F05C0662371F096E8862FB9
:1014700070E060E02AF09A95660F771F881FDAF710
:10148000880F9695879597F90895990F0008550F3D
:10149000AA0BE0E8FEEF16161706E807F907C0F0FA
:1014A00012161306E407F50798F0621B730B840B02
:1014B000950B39F40A2661F0232B242B252B21F4DC
:1014C00008950A2609F4A140A6958FEF811D811D7C
:1014D000089597F99F6780E870E060E008959FEFB6
:1014E00080EC089500240A941616170618060906BB
:1014F000089500240A94121613061406050608958A
:10150000092E0394000C11F4882352F0BB0F40F411
:10151000BF2B11F460FF04C06F5F7F4F8F4F9F4F51
:10152000089557FD9058440F551F59F05F3F71F0D3
:101530004795880F97FB991F61F09F3F79F087953A
:101540000895121613061406551FF2CF4695F1DFC3
:1015500008C0161617061806991FF1CF8695710553
:10156000610508940895E894BB2766277727CB0187
:1015700097F908950E94450A08F48FEF089516F030
:101580000C94060C0C946F0A68940C94690A0E94DF
:10159000990AA8F39923C1F3AEF3DF93CF931F9376
:1015A0000F93FF92C92FDD2788232AF02197660F1A
:1015B000771F881FDAF720E030E040E85FEB9FE319
:1015C000883920F0803E38F021968F770E94F60807
:1015D000E8E6F0E004C00E94F608E5E9F0E00E94C9
:1015E000140C8B01BE01EC01FB2E6F577109759530
:1015F000771F880B990B0E940A0A28E132E741E322
:101600005FE30E94220BAF2D9801AE01FF900F9176
:101610001F91CF91DF910E940D090C94800A0E94C6
:10162000220B0C94800A0E94720A38F00E94790AF8
:1016300020F0952311F00C94690A0C946F0A112480
:101640000C94B40A0E94910A70F3959FC1F3950F10
:1016500050E0551F629FF001729FBB27F00DB11D36
:10166000639FAA27F00DB11DAA1F649F6627B00DC6
:10167000A11D661F829F2227B00DA11D621F739FAF
:10168000B00DA11D621F839FA00D611D221F749FBD
:101690003327A00D611D231F849F600D211D822F04
:1016A000762F6A2F11249F5750409AF0F1F088232B
:1016B0004AF0EE0FFF1FBB1F661F771F881F915058
:1016C0005040A9F79E3F510580F00C94690A0C9494
:1016D000B40A5F3FE4F3983ED4F386957795679517
:1016E000B795F795E7959F5FC1F7FE2B880F911D82
:1016F0009695879597F90895FA01EE0FFF1F30969A
:1017000021053105A1F16115710561F48038BFE350
:101710009B0749F168949038810561F08038BFEFEC
:101720009B0741F099234AF5FF3FE105310521056B
:1017300019F1E8940894E795D901AA2329F4AB2F6D
:10174000BE2FF85FD0F310C0FF5F70F4A695E0F7EE
:10175000F73950F019F0FF3A38F49F779F930DD086
:101760000F9007FC9058089546F00C946F0A60E0C3
:1017700070E080E89FE308954FE79F775F934F9372
:101780003F932F930E94C70A2F913F914F915F91F2
:101790000E940F0B0C94D40B29F416F00C94690AD8
:1017A0000C94B30A0C946F0A0E94990AA8F3963815
:1017B000A0F707F80F92E8942BE33AEA48EB5FE7CB
:1017C0000E94250B0F920F920F924DB75EB70F92AA
:1017D0000E947D0CE2ECF0E00E94140C4F915F91AE
:1017E000EF91FF91E595EE1FFF1F49F0FE57E0686E
:1017F0004427EE0F441FFA95E1F74195550B0E94DF
:10180000470C0F9007FE0C943B0C08959F3F31F05E
:10181000915020F4879577956795B795880F911D1E
:101820009695879597F90895DF93CF931F930F931C
:10183000FF92EF92DF927B018C01689406C0DA2E52
:10184000EF010E94220BFE01E894A59125913591AC
:1018500045915591A6F3EF010E940D09FE019701F4
:10186000A801DA9469F7DF90EF90FF900F911F9134
:10187000CF91DF9108959B01AC0160E070E080E8BA
:101880009FE30C9467090C94690A0C94060C0E945F
:10189000990AD8F39923C9F3940F511DA3F39150DA
:1018A000504094F059F0882332F0660F771F881F5C
:1018B00091505040C1F79E3F51052CF7880F911D64
:1018C0009695879597F908955F3FACF0983E9CF008
:1018D000BB27869577956795B79508F4B160939582
:1018E000C1F7BB0F58F711F460FFE8CF6F5F7F4F70
:1018F0008F4F9F4FE3CF0C94B40AFA01DC01AA0F7B
:10190000BB1F9B01AC01BF5728F422273327442774
:10191000507820C0B75190F4AB2F002446953795EE
:101920002795011CA395D2F3002071F0220F331FDD
:10193000441FB395DAF30ED00C94F50861307105AD
:10194000A0E88A07B94630F49B01AC0166277727E7
:1019500088279078309621F0208331834283538307
:101960000895AA1BBB1B51E107C0AA1FBB1FA617E6
:10197000B70710F0A61BB70B881F991F5A95A9F738
:1019800080959095BC01CD010895A1E21A2EAA1B65
:10199000BB1BFD010DC0AA1FBB1FEE1FFF1FA2171F
:1019A000B307E407F50720F0A21BB30BE40BF50B1C
:1019B000661F771F881F991F1A9469F760957095A5
:1019C000809590959B01AC01BD01CF010895EE0F6C
:1019D000FF1F0590F491E02D099481E090E0F894C8
:1019E0000C94FB0CFB01DC018D910190801901101E
:0A19F000D9F3990B0895F894FFCF86
:1019FA000A010A0100000000A2010B013901EF01EE
:101A0A006A0148015C012F2F22225C5C6208660C85
:101A1A006E0A720D7409006E756C6C0074727565CD
:101A2A000066616C736500746F7069630073656E3C
:101A3A00736F7265730074656D70006C75780077EA
:0C1A4A00696E645370656564000D0A004D
:00000001FF
